:020000040800F2
:1000000030070020A90100080F2800082927000850
:100010000D280008F51400080B2A00080000000055
:10002000000000000000000000000000132800088D
:100030002F150008000000001128000815280008EE
:10004000C3010008C3010008C3010008C301000880
:10005000C3010008C3010008C3010008C301000870
:10006000C3010008C3010008C3010008F914000817
:10007000C3010008C3010008C3010008C301000850
:10008000C3010008C3010008C3010008C301000840
:10009000C3010008C3010008C3010008C301000830
:1000A000C3010008C3010008C3010008C301000820
:1000B000C3010008C3010008C3010008C301000810
:1000C000C3010008C3010008C3010008C301000800
:1000D000C3010008C3010008C3010008C3010008F0
:1000E000C3010008C3010008C301000800F002F8C2
:1000F00000F04AF80AA090E8000C82448344AAF178
:100100000107DA4501D100F03FF8AFF2090EBAE875
:100110000F0013F0010F18BFFB1A43F0010318473B
:100120002031000040310000103A24BF78C878C167
:10013000FAD8520724BF30C830C144BF04680C60ED
:10014000704700000023002400250026103A28BF35
:1001500078C1FBD8520728BF30C148BF0B60704739
:10016000662903F00380642900F052800020704764
:100170001FB500F0DFFB04000020002102F0CEFCE0
:10018000E0601FBD10B510BD00F0D4FC1146FFF7B4
:10019000EFFF02F067FC00F0F2FC03B4FFF7F2FFA0
:1001A00003BC00F035FD00000948804709480047BE
:1001B000FEE7FEE7FEE7FEE7FEE7FEE7FEE7FEE717
:1001C000FEE7FEE704480549054A064B7047000074
:1001D00091280008ED0000083001002030070020C1
:1001E00030030020300300200FB41CB5074B06AAD3
:1001F0007B4469460090059800F083FB0020694627
:1002000000F092FB1CBC5DF814FB000035070000F9
:100210002DE9F0410646002410687529314616A5DF
:1002200010D0AFF30080002802DA404213A507E0A7
:1002300031688A0701D512A502E0490704D511A546
:10024000012401E0AFF3008000210A2206F1240717
:1002500009E0B0FBF2FCB0FBF2F302FB1C00303013
:1002600078541846491C0028F3D123462A463046C4
:10027000BDE8F04100F0D8B8000000002D000000FB
:100280002B000000200000002DE9F0474FF0000A8D
:1002900089460446C0F820A02046E1688847002827
:1002A00076D0252806D0D4E901219047206A401C49
:1002B0002062F1E7E168204600258847C4F81CA0C9
:1002C00006460027C4F818A02A2E09D0304602F0AE
:1002D000C1FB38B304EB8708303EC8F8186019E05A
:1002E00059F8041B204604EB87029161E1688847B6
:1002F000012F064618D1E069002820DA25F02005F4
:100300001DE0D8F8180000EB800006EB4000303804
:10031000C8F818002046E1688847064602F09AFBB4
:100320000028EED1012F0AD02E2E08D12046E168F8
:1003300088477F1C0646022F45F02005C4DBA069D4
:10034000002803DA404245F00105A061E80701D02A
:1003500025F01005B6B1A6F14100192802D82036C3
:1003600045F400654A463146204625604D46FFF774
:10037000F7FE58B1012806D0ED1D25F0070000F169
:10038000080989E704E005F1040985E730468AE7B2
:10039000206ABDE8F08710B5431C02E010F8011B8D
:1003A00071B18107FAD14FF0013202C88C1A8C4327
:1003B00014EAC211F9D0C01A0A0603D0C01E10BD3B
:1003C000C01A10BD0A0401D0801E10BD0902FCD065
:1003D000401E10BD4FF0000200B5134694469646ED
:1003E000203922BFA0E80C50A0E80C50B1F1200148
:1003F000BFF4F7AF090728BFA0E80C5048BF0CC0F6
:100400005DF804EB890028BF40F8042B08BF704753
:1004100048BF20F8022B11F0804F18BF00F8012BC5
:1004200070477047704770472DE9F0470D46994671
:100430009246044600F124080168880604D5E06964
:1004400021F01001216000E00120A84201DD471BDE
:1004500000E00027A1697A1902EB0900081AA061DF
:100460002078C00602D42046AFF30080002608E0C2
:10047000D4E901211AF806009047206A401C761C36
:1004800020624E45F4DB2078C0060AD52046AFF343
:10049000008006E0D4E9012130209047206A401C0A
:1004A0002062381EA7F10107F4DC07E0D4E901213E
:1004B00018F805009047206A401C2062281EA5F10C
:1004C0000105F3DC2046AFF300802078000602D55A
:1004D0000220BDE8F0870120FBE770472DE9FF4FC0
:1004E0000C461E464FF0FF378BB0D2E90001DDF815
:1004F00060800A908A46C1F30A5505B93D4600213D
:1005000008464FF00000BAF1000F00F4400005DA91
:1005100000EB80004FF4400101EA50004FEA90598F
:10052000B9F1010F00DDB9460A9850EA4A000ED031
:1005300044F61050A5F2FF3545432F14B8F1000FD3
:100540001ED07542291E1EDDC9F100021CE0B8F163
:10055000010F4FF0000001D0302103E0F24305E02D
:100560002154401CB042FBDB3046002200212154C4
:100570000B99C1F80880C1E900200FB0BDE8F08FE9
:10058000BD1B6D1CDEE74A4600DA694206A800F092
:100590005BFA06AB93E8070003AB83E8070050461D
:1005A0000A9900F03CFB8DE80700A0F500501F38C9
:1005B00000900398002D0ADD42F21F014A460844CC
:1005C000002303A90390684600F0A5FD09E0A0F50B
:1005D00000504A461F38002303A90390684600F0E4
:1005E000AFFD8DE807000004000C03D04FF0FF3092
:1005F000410800E01046B8F1000F03D0002200923D
:1006000015461EE0751E05D400F098F9303262558B
:100610006D1EF9D5B3460122084302D000227F1C8B
:1006200004E02078302801D100227F1E002A09979B
:1006300084D01DE0112D07DA00F080F930326255C8
:100640006D1C50EA0102F5D1084302D00098C8B1F0
:100650000EE00021681E05E0235C625C63542254B6
:10066000401E491C8142F7DBAB46A81B401E099087
:10067000002004F80B000B98099AC0F80880C0E924
:10068000002B7AE711264FF0000857E72DE9F04FCD
:1006900088460446D21D22F0070191B0D1E900013D
:1006A000CDE90A0102F0B2F902460B98C00F01D061
:1006B0002D2007E02068810701D52B2002E02021B2
:1006C00001EAC000032A099001D0072A05DB03468E
:1006D0004146204600F078F90BE12078800601D5EC
:1006E000E06900E00620B8F1650F814606D0B8F158
:1006F000660F18D0B8F1670F70D131E00020B9F162
:10070000110F009001DB112301E009F101030AAA96
:1007100001A90CA8FFF7E2FEDDE90C70002609F143
:100720000105834647E001204B4600904FF000470B
:100730000AAA01A90CA8FFF7D1FEDDE90DB00C99BA
:100740005D46002610B909F101000D18B9EB05004E
:1007500003D4C0F1FF3609F10105A5EB09002BE038
:10076000B9F1010F01DA4FF001090020B9F1110FC1
:100770000090484601DD112300E003460AAA01A9C2
:100780000CA8FFF7ABFEDDE90C704D460026834652
:10079000207800070AD4AB4500DA5D4601A8012D98
:1007A00004DD411911F8011C302907D04F4502DA48
:1007B00017F1040F04DA012082460FE06D1EEEE708
:1007C000002F02DCED1B3E4403E0781CA84200DD54
:1007D0007D1CB81B00F1010A4FF00047207800078C
:1007E00003D4AA4501DB4FF0FF3A0021B7F1004FD7
:1007F0000DF143088DF8431024D002202B23002F45
:1008000001DA7F422D230A21021EA0F1010000DC43
:100810005FB197FBF1FC97FBF1F201FB1C7C1746E3
:100820000CF1300C08F801CDEEE7A8F101000370DF
:100830002188090501D5452100E06521A0F10108C5
:1008400000F8011C09980FA9A1EB0807FF1D00B1D2
:100850000120411901EBEA70A1693844081A401ED1
:10086000A0612078C00602D42046AFF3008009982A
:1008700028B1D4E901219047206A401C20622078E9
:10088000C00622D52046AFF300801EE0002E04DB18
:10089000B34502DD01A8805D00E03020D4E90121EC
:1008A0009047206A401C2062761CAAF101005FEA92
:1008B000000A0AD100F03EF8C0680168405CD4E943
:1008C00001219047206A401C2062281EA5F10105E5
:1008D000DCDC07E0D4E9012118F8010B9047206A1D
:1008E000401C2062381EA7F10107F3DC2046AFF35D
:1008F0000080032011B041E601694A1C02610878BA
:10090000704700B58FB0CDE901310021059105494F
:100910007944CDE9031011466846FFF7B5FC0FB0E6
:1009200000BD0000E5FFFFFF0A6802F8010B0A6046
:100930007047000000487047EC00002030B5B0F16F
:100940000A024FEA900E71F100034EEA817EB0EB8D
:100950000E0061EB91014FEA101E4EEA017E10EB92
:100960000E0041EB11114FEA102E4EEA016E10EB12
:100970000E0041EB11214FEA104E4EEA014E10EBF2
:100980000E0041EB1141401841F100014FEAD00047
:1009900040EA41704FEAD10110EB80054FEA810433
:1009A00044EA907444EB01046D1944EB0404521BB7
:1009B000A3414FF0000348BF0A3200D530BD401CB0
:1009C00041F1000130BD00002DE9F0411F46044611
:1009D00003260168072A01F4006004DB08B116A5AC
:1009E00005E016A503E008B115A500E015A521F066
:1009F00010002060A069C01EA0610FB1401EA06160
:100A00002046AFF300804FB1D4E90121384690472A
:100A1000206A401C2062C01C206206E0206AFAE7BF
:100A2000D4E9012115F8010B9047761EF8D2204633
:100A3000AFF30080BDE8F0814E414E006E616E0064
:100A4000494E4600696E66002DE9F047814616461C
:100A50008AB0354878440DC88DE80D003248784496
:100A6000801C03AC0DC884E80D0041F69B3008449F
:100A7000372190FBF1F290FBF1F5A5F1800501FB28
:100A800012041B3C02D56442012000E00020DFF884
:100A900098A080460027FA44AAF1BE0A0EE0E007BB
:100AA0000AD03246684607EB470101230AEB810171
:100AB00000F046FB8DE8070064107F1C002CEED18F
:100AC000194F7F44AE3F19E0E80715D007EB04103B
:100AD0000DF1180A90E80E008AE80E00C068F04296
:100AE00001D1981908903246012306A903A800F005
:100AF00027FB03AB83E807006D10641C002DE3D1D6
:100B00004FF0010332466946B8F1000F03A802D046
:100B100000F001FB01E000F013FBC9E90001C9F896
:100B200008200AB0BDE8F087D027000000487047D1
:100B3000CC0000207546FFF7F9FFAE460500694678
:100B4000534620F00700854618B020B5FFF73AFB62
:100B5000BDE820404FF000064FF000074FF00008BE
:100B60004FF0000B21F00701AC46ACE8C009ACE83F
:100B7000C009ACE8C009ACE8C0098D46704710B5A3
:100B80000446AFF300802046BDE81040FFF705BBE8
:100B90004FF0013C50F8042B51F8043B9A4221D10C
:100BA000A2EB0C03934313EACC1317D150F8042B98
:100BB00051F8043B9A4215D1A2EB0C03934313EA7C
:100BC000CC130BD150F8042B51F8043B9A4209D1B5
:100BD000A2EB0C03934313EACC13DBD04FF00000DD
:100BE000704700BFD01A01BAB1FA81F101F01801C3
:100BF00022FA01F0CB40C1F12001DBB2C0B2C01A31
:100C00002CFA01F3D11A914311EAC311E6D17047CE
:100C100001491820ABBEFEE72600020070475FEADC
:100C2000400C08BF91F0000F4FEA8C234FEAC1221D
:100C300043EA51514FEA1C5018BF00F5F0404FEA0B
:100C4000300018BF41F000415FEA6C5C00F0298081
:100C5000BCF1FF3F08BF40F080407047130C06BF57
:100C600012044FF0100C4FF0000C130E04BF1202D0
:100C70000CF1080C130F04BF12010CF1040C930FBC
:100C800004BF92000CF1020CD30F04BF52000CF110
:100C9000010C11464FF00002A0F11F00A0EB0C0068
:100CA000704711F0004F08BF704731F000413FF42A
:100CB000D5AF0B0C06BF09044FF0100C4FF0000C21
:100CC0000B0E04BF09020CF1080C0B0F04BF090145
:100CD0000CF1040C8B0F04BF89000CF1020CCB0F3C
:100CE00004BF49000CF1010CCCF12003A0EB0C0077
:100CF00022FA03F302FA0CF241EA030100F10100C7
:100D0000704720F07F4C80EA030023F07F47ACEB74
:100D1000070303F57C5300F0004003F1FF032DE9C6
:100D200080494FEA154B09B44FEA144325EA0B4EAC
:100D300024EA03480FF2042606EB132749083E78FD
:100D40005FEA320203FB0667C7F5000707FB06F6FA
:100D50004FEA54374FEAD64606F1020607FB066C07
:100D6000CCF1005C4FEA1C472CEA074C07FB06F469
:100D70000CFB06F504EB15464FEA961634BF00202F
:100D80004FF000404FEAD13706FB07FC4FEA1C4CFE
:100D90000CFB0BF7D21B03FB0CF761EB07010CFB01
:100DA0000EF7B0EB074072EB17420CFB08F734BFAD
:100DB000A2EB0742B2EB074261EB17414FEA0C444A
:100DC0004FEA910706FB07FC4FEA1C4C0CFB0BF7A4
:100DD000B0EBC74072EB573203FB0CF734BFA2EB0A
:100DE000C742B2EBC74261EB57310CFB0EF7B0EBD9
:100DF000C70072EB57720CFB08F734BFA2EBC702B7
:100E0000B2EBC70261EB5771039F4FEA816141EA80
:100E1000921104EBCC044FEAD1374FEA826206FB11
:100E200007FC42EA90124FEA80604FEA1C4C0CFB30
:100E30000BF7D21B03FB0CF761EB07010CFB0EF762
:100E4000B0EB074072EB17420CFB08F734BFA2EB84
:100E50000742B2EB074261EB17414FEA8C554FEA6C
:100E6000910704EB9C2406FB07FC4FEA1C4C0CFB8F
:100E70000BF7B0EBC74072EB573203FB0CF734BFF4
:100E8000A2EBC742B2EBC74261EB57310CFB0EF746
:100E9000B0EBC70072EB57720CFB08F734BFA2EB44
:100EA000C702B2EBC70261EB577115EB4C254FEA55
:100EB000816141EA92114FEA82624FEAD13742EAF8
:100EC000901206FB07FC44F100044FEA80604FEAF1
:100ED0001C4C0CFB0BF7D21B03FB0CF761EB07015F
:100EE0000CFB0EF7B0EB074072EB17420CFB08F758
:100EF00034BFA2EB0742B2EB074261EB174115EB9F
:100F00001C154FEA813141EA92414FEA823242EAAE
:100F100090424FEA80304FEA0C7644F1000448EAF0
:100F200003434EEA0B484FF0000EB2EB080C71EB96
:100F3000030724BF624639464EEB0E0E4FF0000BFE
:100F40000018524149414BEB0B0BB2EB080C71EB13
:100F500003077BF1000B24BF624639464EEB0E0EB1
:100F60004FF0000B0018524149414BEB0B0BB2EB19
:100F7000080C71EB03077BF1000B24BF6246394676
:100F80004EEB0E0E51EA020718BF46F0010616EBB3
:100F90000E7655F1000254F1000103D5BDE8890138
:100FA000BDE80088BDE88901BDE80048B619524196
:100FB00041EB0101A3F10103704780807F7E7D7CBE
:100FC0007B7A7978777676757473727171706F6EDB
:100FD0006E6D6C6C6B6A6A69686867666665646486
:100FE000636362616160605F5F5E5E5D5D5C5C5B10
:100FF0005B5A5A595958585757565655555554547F
:10100000535352525251515050504F4F4F4E4E4DDC
:101010004D4D4C4C4C4B4B4B4A4A4A494949484828
:101020004847474747464646454545444444444368
:1010300043434342424242414141002B9C4630D40B
:1010400077002BD01CB54FEA370703B44FF01000E0
:101050004FF01001BAF1000F06D0BCF1000FDCBF59
:1010600040F0080040F008014FF000000FBCBDE860
:1010700010400BF1010BBBF1010F08BF5FEA17072E
:1010800022BF12F1010211F101014FF0004143F1C1
:10109000000300F0004043EA00007047F9D357080E
:1010A000D0E746EA064613F1400F4FEA16461FDD29
:1010B00013F1200FDFBF16430A46002120335B42A5
:1010C000BED0C3F1200746EA064602FA07F74FEA08
:1010D000164646EA0706C3F1200722FA03F201FA90
:1010E00007F721FA03F14FF0000342EA0702A7E7EE
:1010F00046EA020646EA06464FEA164646EA010670
:10110000BCBF46EA0646360C4FF000034FF0000223
:101110004FF0000194E72DE9804C9A46934670B455
:1011200091E8380007C831EA400C48BF34EA430C64
:1011300003D5FFF7E6FDFFF780FFF0BCBDE8008CAC
:101140002DE9804C9A46934670B491E8380007C860
:1011500010F0804F08BF13F0804F03D100F005F866
:10116000FFF76BFFF0BCBDE8008C20F07F4780EA02
:10117000030023F07F4C07EB0C03A3F57C5300F036
:101180000040A3F1FE0392F0000F00F0B38095F051
:10119000000F00F077802DE901494FEA11404FEA36
:1011A000144621EA004800FB06FC24EA064708FB37
:1011B00006F607FB08F800FB07F718EB06484CEBB0
:1011C000164C4FEA124B18EB07484FEA15464CEB0A
:1011D000174022EA0B4E0BFB06FC25EA06470EFBE6
:1011E00006F607FB0EFE0BFB07F71EEB064E4CEB5D
:1011F000164C4FF000061EEB074E4CEB174B18EB4E
:101200000B0840F1000018EB0E0B58EB000840F102
:1012100000008F1A4FF000013CBFC943661B14BF8A
:10122000B5EB040C00213CBFC943F61B4FEA174441
:101230004EEA8E0E27EA04454FEA1C4704FB07627C
:101240002CEA074C05FB07F70CFB05F604FB0CFC2E
:1012500016EB074642EB174216EB0C4642EB1C42DC
:101260001BEB060658EB0202414146EA9E0601D5F9
:10127000BDE80189B619524141EB0101A3F1010317
:10128000BDE801894FEA14454FEA114724EA0546B3
:1012900021EA074C05FB07F406FB07F70CFB06F1F8
:1012A00005FB0CFC11EB074144EB17444FEA1247D6
:1012B00011EB0C4144EB1C4422EA074C05FB07F2FE
:1012C00006FB07F70CFB06F605FB0CFC16EB0746C6
:1012D00042EB174216EB0C4642EB1C456A1854F1E0
:1012E000000148BF7047B619524141EB0101A3F11B
:1012F0000103704795F0000F37D04FEA11424FEAD3
:10130000144721EA024624EA074C02FB07F106FBD8
:1013100007F70CFB06F402FB0CFC14EB074441EB53
:1013200017414FEA154714EB0C4441EB1C4125EAE9
:10133000074C02FB07F506FB07F70CFB06F602FB62
:101340000CFC16EB074645EB174516EB0C4645EB38
:101350001C42121951F1000148BF7047B6195241A1
:1013600041EB0101A3F1010370474FEA14454FEA35
:10137000114724EA054621EA074C05FB07F106FB65
:1013800007F70CFB06F24FF0000605FB0CFC12EB16
:10139000074241EB174112EB0C4251EB1C4148BF95
:1013A0007047921841EB0101A3F10103704700005F
:1013B00070B5044600688168C943C90717D18168C0
:1013C00021F00101816000F00FFD05460AE000BF39
:1013D00000F00AFD401B022804D920688068C04341
:1013E000C00706D020688068C043C007F0D0002046
:1013F00070BDA06A40F01000A062E06A40F00100F9
:10140000E062012070BD10B50146406A826A12F0A8
:10141000500F05D0006A026BBDE810400846104727
:10142000816A41F40071816201688968C1F34241B7
:1014300007290CD1017B51B9816A21F48071816245
:10144000816AC90403D4816A41F00101816200F01C
:101450005BF910BD10B5406A816A41F040018162BC
:10146000C16A41F00401C16200F050F910BD10B52D
:10147000406A00F04AF910BDF8B50026044600960F
:1014800000688168C943C9072DD0816841F0010116
:101490008160164816490068B0FBF1F000E0401E7C
:1014A00000900028FBD100F09FFC054616E000BF2D
:1014B00000F09AFC401B022810D920688068C043C5
:1014C000C0070BD0A06A40F01000A062E06A40F0B4
:1014D0000100E06284F824600120F8BD2068806883
:1014E000C043C007E4D10020F8BD00000C0000207C
:1014F00040420F00FEE70000014800F063BA000020
:101500004000002030B590F840500124AC40C56B3D
:101510006C60046863604368102B036803D09960B3
:101520000068C26030BD9A600068C16030BD70471D
:1015300072B6FEE7F8B500250446009590F8240041
:1015400001280BD0012084F824002046FFF730FF4B
:101550002046FFF791FF060002D050E00220F8BDC0
:10156000A06A20F4885040F00200A062022000F03F
:10157000D9FC25490968B1FBF0F0400000E0401EAD
:1015800000900028FBD12068816841F0080181604B
:1015900000F02AFC074608E000F026FCC01B0A28E1
:1015A00003D920688068000715D420688068000788
:1015B000F2D42068816841F00401816000F014FCDD
:1015C000074612E000F010FCC01B0A280DD9206865
:1015D0008068400709D5A06A20F0020040F01000A2
:1015E000A06284F824500120F8BD2068806840077C
:1015F000E8D4A06A20F0020040F00100A06284F864
:1016000024503046F8BD00000C000020F8B500243E
:10161000009490F824202546012A12D0012280F857
:1016200024204A681F23072A0DD20668776B521EB2
:1016300002EB820293409F430B6893401F43776302
:1016400019E00220F8BD06680D2A0AD2376BD21FB6
:1016500002EB820293409F430B6893401F43376322
:1016600009E0F76A0D3A02EB820293409F430B6850
:1016700093401F43F7620A68072306680A2A0AD3C1
:10168000F7680A3A02EB420293409F438B6893400B
:101690001F43F76008E0376902EB420293409F4323
:1016A0008B6893401F4337610A68102A01D0112AC2
:1016B00020D1124B02689A4217D193681B0219D4A9
:1016C000936843F4000393600968102912D10C4910
:1016D0000C4A0968B1FBF2F101EB8101490000E01D
:1016E000491E00910029FBD104E0816A41F02001EC
:1016F0008162012480F824502046F8BD0024014076
:101700000C00002040420F007047704770470000F7
:101710002DE9F0414FF0000704003D467ED0A06A5D
:10172000002628B9E66284F82460204600F07EF89E
:101730002046FFF73DFEA16AC90600D420B1A06A89
:1017400040F01000A06269E0A16A21F4885141F0E4
:101750000201A1626268E169237B0A4347EA43010F
:101760000A43A1684FF48077B94209D0012907D014
:101770005FF0000194F814C0BCF1010F02D00AE040
:101780003946F7E7F3B1A36A43F02003A362E36AA3
:1017900043F00103E3622368D3F804C02CF4694CDE
:1017A0004CEA010CC3F804C021688B68DFF870C0F4
:1017B00003EA0C0313438B60A168B9420BD00129E3
:1017C00009D00CE0DFF85CC0A3690CEB43330B439A
:1017D00043F40061DFE7218A0D05A5F58015216836
:1017E000CB6A23F470032B43CB62216889680E4BCC
:1017F0001940914208D1E662A16A21F0020141F04C
:101800000101A162BDE8F081A06A20F0020040F071
:101810001000A062E06A40F00100E0620120F1E700
:10182000FDF7E1FF00E0FFFFFE0E1FFFF0B585B002
:101830000025064600950195029503950068194913
:1018400088422DD11849886940F400708861886900
:1018500000F400700490886940F004008861886991
:10186000202700F0040004900320CDE900706946B1
:101870000E4800F0C9F90F4C0D48C4E9000580205E
:10188000C4E90250400020618000E561C4E9050719
:10189000204600F041F908B1FFF74AFE3462666263
:1018A00005B0F0BD002401400010024000080140D6
:1018B00008000240400000202DE9F0478946044618
:1018C0003B4900683B4F0E1D9046884201D0B8420C
:1018D00007D1306810F4702F03D001252846BDE8E9
:1018E000F08794F8240001280CD0012084F824000B
:1018F0002046FFF7C1FD05004FF0000004D084F83A
:101900002400EBE70220EAE7A16A40F60162914376
:1019100041F48071A1622168B94218D1326812F491
:10192000702F14D0A16A41F48011A1623168490579
:1019300005D5A16A21F4005141F48051A162A16A48
:10194000C9040AD5E16A21F00601E16206E0A26A53
:1019500022F48012A2624968E9E7E06284F8240078
:10196000216A15488862216A1448C862216A1448AD
:10197000086321686FF0020008602068816841F404
:1019800080718160216843464A464C31206A00F0EC
:10199000F1F820688168C1F342410729816803D0CA
:1019A00041F48011816099E741F4A001FAE7000059
:1019B0000024014000280140071400086F140008AB
:1019C000551400082DE9F05FC16B0C6801680B68C5
:1019D000D0F840C0042202FA0CF2494DDFF824A1ED
:1019E000494E4A4FDFF828B1DFF828E122422CD0D7
:1019F0005A072AD50A68920603D40A6822F004021C
:101A00000A600168A94201D1042219E0514501D1BF
:101A1000402215E0B14202D14FF4806210E0B94299
:101A200002D14FF480420BE0594502D14FF480229D
:101A300006E0714502D14FF4800201E04FF0806270
:101A40002F4908394A60C16A3BE04FF0020808FAA2
:101A50000CF818EA040F4FF000094FF0010235D0DE
:101A60005FEA837832D50B689B0605D40B6823F0B8
:101A70000A030B6080F821200168A94201D10222EB
:101A800019E0514501D1202215E0B14202D14FF4B5
:101A9000007210E0B94202D14FF400520BE05945F8
:101AA00002D14FF4003206E0714502D14FF400122A
:101AB00001E04FF00072124908394A6080F8209026
:101AC000816A00291AD0BDE8F05F0847082505FAA9
:101AD0000CF5254212D01B0710D50B6823F00E031E
:101AE0000B6090F84010C36B02FA01F159608263F9
:101AF00080F8212080F82090016BE2E7BDE8F09F9C
:101B0000080002401C000240300002404400024035
:101B1000580002406C00024030B528B308C8134991
:101B200014221944B1FBF2F18900C16310498163A9
:101B3000022141771A6843F6F0718A43D0E9001414
:101B40002143D0E902452C432143046921434469E0
:101B5000214384692143114319600021416301221B
:101B600042770177084630BD012030BDF8FFFDBF48
:101B70000000024070B5044690F8200000250128BE
:101B80000CD0012084F8200094F821600020012E60
:101B900006D084F820000225284670BD022070BDC2
:101BA000022684F82160A0632068066826F00106FA
:101BB00006602046FFF7A6FCE06A0028206801685E
:101BC00002D041F00E0106E021F00401016020681E
:101BD000016841F00A0101602068016841F00101DB
:101BE0000160D9E770B5044600F0FEF80546601CB8
:101BF00002D004480078044400F0F6F8401BA042EC
:101C0000FAD370BD000000202DE9F84FDFF8B8913D
:101C10000024A9F1040B23460F2709F1040AABF1B4
:101C2000040EC9E00125A5402A40AA427DD1674E95
:101C3000D1F804C0ACEB0608B44532D014DCBCF1DA
:101C4000030F3AD009DCBCF1000F2AD0BCF1010F20
:101C50001CD0BCF1020F31D11DE0BCF1110F17D027
:101C6000BCF1120F2AD119E0B8F5881F19D006DC93
:101C7000B8F5803F15D0B8F5801F1FD111E0B8F539
:101C8000001F0ED0B8F5041F18D10AE0CB6815E08C
:101C9000CB681B1D12E0CB6808330FE0CB680C3318
:101CA0000CE08B682BB1012B4FF0080303D045618A
:101CB00004E0042302E0056100E00023FF2A01D8CC
:101CC000064601E000F104064FEA840501D9A5F1BA
:101CD0002005D6F8008007FA05FC28EA0C0803FA6C
:101CE00005F548EA0508C6F800804D68ED0062D5A4
:101CF000374DAE6946F00106AE61AD6924F00306CA
:101D000005F001050095334D06EB050CDCF8085095
:101D1000A607360F07FA06F825EA0805DFF8B880A7
:101D2000404503D14FF0000817E044E0DFF8AC80F5
:101D3000404502D14FF001080FE0DFF8A480404594
:101D400002D14FF0020808E0DFF89880404502D148
:101D50004FF0030801E04FF0040808FA06F848EADB
:101D60000508CCF808804D68D9F80060ED024D46B2
:101D700001D5164300E096432E604D68DAF8006006
:101D8000AD02554601D5164300E096432E604D68DE
:101D9000DBF80060AD035D4601D5164300E09643D5
:101DA0002E604D68DEF80060ED03754601D51643E0
:101DB00000E096432E60641C0D682A46E5407FF4DF
:101DC00031AFBDE8F88F0000080401400000111099
:101DD000001002400000014000080140000C0140DA
:101DE0000010014000140140014880687047000065
:101DF0000000002002488168027811448160704729
:101E000000000020074810B5016841F01001016092
:101E1000032000F075F80F2000F006F800F024F819
:101E2000002010BD0020024070B50D4D04464FF457
:101E30007A712878B1FBF0F00A490968B1FBF0F03B
:101E400000F0A4FB48B9102C07D200222146501EF6
:101E500000F036F800206C6070BD012070BD0000FD
:101E6000000000200C0000200C4808B5816941F0FA
:101E700001018161816901F001010091C16941F0B5
:101E80008051C161C06900F08050009004484168F1
:101E900021F0E06141F00071416008BD0010024096
:101EA00000000140002809DB00F01F0201219140E1
:101EB0004009800000F1E020C0F8001170470000E8
:101EC000F0B40E4B1B680C46C3F30223C3F10705A5
:101ED000042D00D90425191D072901D2002300E093
:101EE000DB1E012606FA05F1491E214099409E405D
:101EF000761E16403143F0BC00F09CBD0CED00E0B6
:101F0000064900F0070208684FF6FF03184040EA50
:101F10000220034A10430860704700000CED00E007
:101F20000000FA0510B501460020234C012922D0FB
:101F3000022939D010291DD161682268D20119D532
:101F40001E48C1F38342C903805C0AD561681B4AFD
:101F5000C1F34041921E515C194AB2FBF1F1484372
:101F600001E0184948436168490203D44000032155
:101F7000B0FBF1F010BD226AC2F30121012903D1A7
:101F8000920701D5C80310BD022905D1626A9207E4
:101F900002D549F6404010BD0329FCD121688903D0
:101FA000F9D54FF2244010BD00F02AF96168C1F361
:101FB0008131491C4900DBE70010024084310008F0
:101FC00000127A0000093D002DE9F843054600782B
:101FD000354CC00754D0E0690026C00008D4E06941
:101FE00040F08050E061E069012600F080500090F0
:101FF0002E480168C90512D40168804641F48071F9
:102000000160FFF7F1FE074605E000BFFFF7ECFEB9
:10201000C01B642823D8D8F80000C005F6D5206A74
:1020200010F4407021D0A98801F4407181421CD085
:10203000206A1F49012220F440700A6000220A60D1
:102040002062C00711D0FFF7CFFE074641F2883863
:1020500008E000BFFFF7C8FEC11B414502D90320BD
:10206000BDE8F883206A8007F4D5206A696820F407
:102070004070084320621EB1E06920F08050E061AA
:102080002878800705D56068A96820F44040084397
:1020900060602878C00605D56068E96820F4800093
:1020A000084360600020DBE7001002400070004041
:1020B000400442422DE9F0470F46050061D0434EEF
:1020C000306800F00700B84209D2306820F00700FD
:1020D00038433060306800F00700B84251D12868BA
:1020E0003B4C810712D5400703D5606840F4E0609F
:1020F00060602878000703D5606840F46050606035
:102100006068A96820F0F000084360602878C00784
:1021100028D06868012810D02168022810D08907CB
:1021200000292EDA616821F0030101436160FFF7A5
:102130005BFE804641F288390DE021688903EFE7B4
:102140008901EDE7FFF750FEA0EB0801494502D9F0
:102150000320BDE8F0876068696800F00C00B0EB10
:10216000810FEFD1306800F00700B8420BD930681A
:1021700020F0070038433060306800F00700B842B4
:1021800001D00120E5E72878400705D56068E968B7
:1021900020F4E060084360602878000706D5606896
:1021A000296920F4605040EAC100606000F038F80E
:1021B0006168084AC1F30311515CC84006490860D0
:1021C00006480068FFF730FE0020C2E7002002400A
:1021D00000100240943100080C0000200400002090
:1021E0000448054900684968044AC1F30221515C6A
:1021F000C84070470C00002000100240A4310008C5
:102200000448054900684968044AC1F3C221515C89
:10221000C84070470C00002000100240A4310008A4
:102220000E4A51680E4801F00C03042B11D0082B04
:102230000FD10C48C1F38343C903C05C0AD5516870
:10224000084AC1F34041921E515C054A5043B0FB1D
:10225000F1F0704704494843704700000010024005
:1022600000127A007231000800093D002DE9F84F94
:10227000040070D02078C04DC00749D06868C0F312
:102280008100012807D06868C0F38100022809D1C5
:102290006868C00306D52868800339D560680028BF
:1022A000E7D035E06068B0F5803F0BD010B1B0F5F5
:1022B000A02F11D0286820F480302860286820F4EE
:1022C000802002E0286840F480302860606890B187
:1022D000FFF78AFD06460AE0286840F4802028605F
:1022E000F0E700BFFFF780FD801B642873D82868E3
:1022F0008003F7D50CE0FFF777FD064605E000BF49
:10230000FFF772FD801B6428F0D828688003F7D49B
:1023100020789A4E80074FF001094FF0000839D518
:10232000686810F00C0F07D06868C0F381000228BD
:1023300009D16868C00306D42868800714D52069CD
:10234000012808D110E02069B0B1C6F80090FFF76D
:102350004BFD074605E00AE1FFF746FDC01B0228DA
:10236000C4D828688007F7D52868616920F0F8008C
:1023700040EAC10028600DE0C6F80080FFF734FD98
:10238000074604E0FFF730FDC01B022823D8286869
:102390008007F7D4207800072CD57948A169D9B1F6
:1023A000C0F80090FFF720FD074604E0FFF71CFD92
:1023B000C01B02280FD8686A8007F7D571484FF410
:1023C000FA510068B0FBF1F0009000BF0098411E88
:1023D0000091FAD20EE080E0C0F80080FFF704FD23
:1023E000074604E0FFF700FDC01B022875D8686AA5
:1023F0008007F7D42078400760D5E8690027C0003F
:1024000008D4E86940F08050E861E869012700F0ED
:10241000805000905C480168C90513D40168834668
:1024200041F480710160FFF7DFFC824606E000BFE7
:10243000FFF7DAFCA0EB0A0064284ED8DBF80000B6
:10244000C005F5D5E06801280AD008B1052813D0E9
:10245000286A20F001002862286A20F0040002E0C7
:10246000286A40F001002862E06841F2883B98B198
:10247000FFF7BAFC82460BE0286A40F004002862AD
:10248000EEE700BFFFF7B0FCA0EB0A0159455AD8B0
:10249000286A8007F6D50CE0FFF7A6FC824605E027
:1024A000FFF7A2FCA0EB0A0159454CD8286A800727
:1024B000F6D41FB1E86920F08050E861E06988B384
:1024C0006968C1F38101022944D00228C6F86080FE
:1024D00004D0FFF789FC044638E034E0FFF784FCC1
:1024E000074604E0FFF780FCC01B02282BD82868B1
:1024F0008001F7D4206AB0F5803F05D16868A168F3
:1025000020F4003008436860D4E908010843696892
:1025100021F4741108436860C6F86090FFF764FC0A
:10252000044606E025E000BFFFF75EFC001B022822
:1025300009D828688001F7D51BE000BFFFF754FCDD
:10254000001B022802D90320BDE8F88F286880010B
:10255000F4D40EE00128F7D06868226A00F48031D4
:10256000914204D1616A00F47010884201D00120C8
:10257000EAE70020E8E700000010024000004242C5
:10258000800442420C0000200070004010B5401E44
:10259000B0F1807F01D3012010BD4FF0E0246061D5
:1025A0000F21601700F046FA0020A061072020618B
:1025B000002010BD70B5040004D094F8410000253F
:1025C00010B106E0012070BD84F84050204600F0B4
:1025D00023F8242084F841002068C16821F40051C8
:1025E000C160204600F07CF92068016921F4904127
:1025F00001612068416921F02A0141612068C168B8
:1026000041F40051C1606564202084F8410084F8E1
:1026100042006563002070BD30B585B00024009491
:1026200001940294039400681449884224D1144808
:10263000816941F480418161816901F480410491A3
:10264000816941F00401816180690E4D00F0040050
:1026500004904FF40070009002200190032003903A
:1026600069462846FFF7D0FA2815CDE900046946E7
:1026700028460294FFF7C8FA05B030BD0038014083
:1026800000100240000801402DE9F843044690F88C
:102690004100984616460D46202802D00220BDE88B
:1026A000F88385B17EB100206064212084F8410068
:1026B000FFF79AFBA6848146E684A0682027B0F540
:1026C000805F02D003E00120E9E7206910B12E46C7
:1026D00000250EE000260CE08021204600F05CF989
:1026E000A8B9C6B116F8010B21684860E08C401EFD
:1026F000E084E08C4B464FF00002CDF800800028CB
:10270000EAD14FF04001204600F046F940B184F88C
:1027100041700320C3E735F8020BC0F30800E3E77C
:1027200084F841700020BAE7FEE700003EB50021C2
:102730001148009101910F4A0291026001248160C9
:10274000047301754FF460220461C2614160FEF7B9
:10275000DFFF08B1FEF7ECFE0520CDE900040720FD
:10276000029069460448FEF751FF002801D0FEF7A9
:10277000DFFE3EBD0024014010000020094808B5DE
:10278000416941F0010141614069002200F001000E
:10279000009011460B20FFF793FBBDE808400B208B
:1027A000FFF780BB00100240094808B5816941F07D
:1027B00020018161816901F020010091816941F06E
:1027C00004018161806900F00400009008BD0000F0
:1027D000001002400C4810B50A4901604FF4E13185
:1027E0004160002181600C22C160C0E90412816156
:1027F000C161FFF7DFFE002803D0BDE81040FEF7FF
:1028000097BE10BD0038014084000020FEE7FEE7BF
:1028100070477047FFF7EEBA30B593B0282168468D
:10282000FDF7D8FD14210AA8FDF7D4FD00250120ED
:102830000F9510951195010412958DE823000490D1
:102840004FF4E010CDE90810022407946846FFF722
:102850000DFD08B172B6FEE70AA90F2081E831002C
:102860004FF48060CDE90D0502210AA8FFF722FC94
:1028700008B172B6FEE74FF4004011900F940FA814
:10288000FFF7A2FB002801D072B6FEE713B030BDFF
:10289000704701680C3151E8002F22F4907241E832
:1028A0000023002BF5D10168143151E8002F22F0EC
:1028B000010241E80023002BF5D1016B012909D168
:1028C00001680C3151E8002F22F0100241E800238A
:1028D000002BF5D1202180F84210002101637047C0
:1028E00070B5044600680169E26821F44051114363
:1028F00001612169A0680843616908432168CA68C9
:1029000041F20C639A430243CA6020684169A2699C
:1029100021F44071114341611E492068884202D16F
:10292000FFF76EFC01E0FFF75BFC00EBC00101EB81
:102930000012606864218000B2FBF0F3B3FBF1F396
:102940006FF018067343B2FBF0F5B2FBF0F605EB3F
:102950008305322303EB0515B5FBF1F5B6FBF1F664
:1029600005F0F00505EB0615B2FBF0F6B2FBF0F052
:10297000B0FBF1F06FF01802504306EB800003EB60
:102980000010B0FBF1F0216800F00F0028448860CF
:1029900070BD0000003801402DE9F8439846174605
:1029A0000D460446089E24E0701C22D0FFF71CFA56
:1029B000A0EB0800B0421AD8CEB12068C168490720
:1029C00017D5802D15D0402D13D00168C9430907B4
:1029D0000FD401680025406800902046FFF759FF9A
:1029E0000820606484F840500120BDE8F88303208B
:1029F000FBE72068006835EA000004D00020B842F8
:102A0000D2D00020F1E70120F9E7FEE7490050EAC3
:102A1000C12018BF04204A0D18BF40F0010040F249
:102A2000FF72B2EB515F08BF40F00200012808BFFF
:102A3000052070470907090E002804DB00F1E0209B
:102A400080F80014704700F00F0000F1E02080F8DB
:102A5000141D704730380A2801D201207047002029
:102A60007047000090B0FFF7CDF9FFF7D5FEFFF7F4
:102A70009BFEFFF783FEFFF759FEFFF7ABFE1C48F6
:102A8000FEF758FD01220FA91948FEF715FF4FF474
:102A9000FA70FFF7A7F8174E174F4FF066354FF44F
:102AA0007A7800BFBDF83C40204600F0D7F92A46AE
:102AB000334600F0E7F900223B4600F077F800F0DB
:102AC00043F800F0DDFACDE9000122460BA102A88F
:102AD000FDF78AFB02A8FDF75EFC82B2642302A91F
:102AE0000D48FFF7D1FD4046FFF77CF8DAE700001C
:102AF0001000002066660A4000FEAF4041444320BB
:102B00007261772025642C766F6C7461676520256F
:102B10002E3366560D0A00008400002010B50029EF
:102B20000AD00878002807D005487844FEF730F826
:102B3000002801D0002010BD0248784410BD0000DC
:102B4000360700002E07000021F00042A2F160527B
:102B5000B2F5801F01F0004328BFD2F17F6C0BD982
:102B60005FEA001C43EAC20242EB507018BF704794
:102B700028BF20F001007047B2F5801FBCBF184687
:102B800070474FEA410C1CF5001F02D2084600F0C6
:102B9000E8BA70B500F020FA00000089FFF7F6BF30
:102BA0004FF00040A0F58000704700002DE9C041C3
:102BB00030B4DFF8A0C23CEA111418BF3CEA131489
:102BC00000F0EC8081EA03051CEA111444EAD57494
:102BD00018BF1CEA131500F0C780A4EB05044FF0E2
:102BE000004545EAC12145EAC32341EA505143EA81
:102BF000525304F17F74994204F500344FEAC02027
:102C00004FEAC22208BF904200F09C804FEA136551
:102C10000FF24016765D4FEA134506FB05F7C7F144
:102C2000807706FB07F74FEAD737A7FB03687642A2
:102C3000C8F58038A7FB06CE38BFA8F1010807FB0E
:102C400008E64FF0000EA6FB028CE6FB03CEDCF19B
:102C5000000CCEF1004E38BFAEF1010EA6FB0C58B1
:102C60004FF000074FF00005E6FB0E87A1FB08C6FA
:102C7000A0FB07CE16EB0E0645F10005E1FB07654C
:102C800015F1E04E7EBFA4F580345FEA46066D4143
:102C900016F1800745F100054FEA17274FEA06664F
:102CA00047EA0567A6F1DE46B6F1805F4FEA1525D3
:102CB0001FD9384624F0010C05EBC471BCF1FE6F3E
:102CC00001EB0C1102D8F0BCBDE8008124425CBFCE
:102CD00001F5801E9EEAC47F02D4F0BCBDE80081ED
:102CE000244238D4F0BCA1F1C041BDE8004100F05D
:102CF000C1B94FEAD22242EA43524FEAD323A7FB9B
:102D000002864FEAD02040EA415007FB03661EEAE4
:102D10000E0F4FEAD12105FB026658BFA6EB005605
:102D2000B6EB00564FEA520E4EEAC37E18EB0E0E7B
:102D300056EB530EBDD518EB02085E417F1C55F1D2
:102D40000005B6E74FF480154FF000074FF000067E
:102D50004FF00008ADE7F0BC4FF0000001F1C041BA
:102D600001F00041BDE8008111EA0C1F0CEA1315C7
:102D700000D00CE013EA0C1F00F025804FF000009B
:102D8000F0BC81EA030101F00041BDE80081F0BC24
:102D9000BDE8004181EA030100F06CB9F0BCBDE878
:102DA000004170B500F018F9097EFC3E00F007B84C
:102DB00081EA03014FF0000001F00041704781EA11
:102DC000030100F057B9F0BCBDE800414FF000002E
:102DD00021497047FFFDFBF9F7F5F4F2F0EEEDEB5A
:102DE000E9E8E6E4E3E1E0DEDDDBDAD8D7D5D4D309
:102DF000D1D0CFCDCCCBCAC8C7C6C5C4C2C1C0BF55
:102E0000BEBDBCBBBAB9B8B7B6B5B4B3B2B1B0AF5A
:102E1000AEADACABAAA9A8A8A7A6A5A4A3A3A2A13E
:102E2000A09F9F9E9D9C9C9B9A99999897979695F9
:102E300095949393929191908F8F8E8E8D8C8C8B95
:102E40008B8A89898888878786858584848383821D
:102E5000828181800000FF070000F87FB0FA80F3D4
:102E600010FA03F10AD0C3F11D0303F580634FEAA2
:102E700041504FEA035202EBD12170474FF000005E
:102E800070470000DFF848C170B51CEA111E1EBF74
:102E90001CEA13159EEA0C0F95EA0C0F00F06F80E8
:102EA00081EA030423EA4C134EEAD47E21EA4C1152
:102EB00041F4801143F48013AE44A1FB024CA0FB0B
:102EC0000365AEF17F7E361955EB0C05A1FB034C73
:102ED0004CF10003A0FB021C16EB0C06654153F1FC
:102EE0000003094218BF46F0010613F4007F0BD11E
:102EF0004FEA03314FEA0530340341EA155140EA05
:102F000016506FF003020AE04FEAC3214FEAC520D2
:102F1000F40241EA555140EA56506FF0020202EBCA
:102F20002E4201EB025585EACE710AD05FEA440CCD
:102F300018BF24F0004450F1000041F1000120EAE4
:102F4000D47040F2FE7C624500D270BDA84214BF2E
:102F50004FF080444FF04044002E08BF0024BEF1E3
:102F6000806FA8BFA1F1C041BDE8704080F28280AF
:102F70004FF0000001F1C04101F0004170479EEAAE
:102F80000C0F0CEA131518BF95EA0C0F06D04FF082
:102F9000000081EA030E0EF0004170BD00F01CF845
:102FA0008900013E00F007B800F009B84FEA430C71
:102FB0005FEA5C5C08D081EA030100F05BB84FEA8D
:102FC000410C5FEA5C5CF6D14FF0000001497047AC
:102FD0000000FF070000F87F0EF1020E2EF0030E36
:102FE0005EF8046B364205D4012A43EB030515F560
:102FF000001F12D8012841EB010C1CF5001F0CD852
:103000000ED14FEAD17C15F5001F0CEB4C0C0CF1E6
:10301000020C08BF4CEBD37C04E04FF0080C01E03D
:103020004FEAD37C0CEB4C0526FA05F606F00706B2
:10303000B6F1040C06D20EEB860CBDE870404CF0E5
:10304000010C6047DFE80CF0090B02024FF0004171
:103050004FF00000A1F5002170BD1946104601286F
:1030600051EB010418BFD4F5001484BF002001F017
:10307000004170BD0808A0F500114FEA310170470A
:1030800043004FEAD30C4FEA3C0C43401FBF4007BC
:103090000CF1605113F0FE4F70471CF0006F03D12C
:1030A00000200CF0004170470CF0004343EA5070E0
:1030B00010B540EACC0000F00EF800BF000000920E
:1030C0004FEA0001FFF7D6BF4FF000414FF000007C
:1030D000A1F5002170470EF1020E2EF0030E5EF8EE
:1030E000044B244204D44FEA4102B2F17F4F11D87D
:1030F0004FEA4003B3F17F4F0CD80ED14FEAD07C9A
:10310000B2F17F4F0CEB4C0C0CF1020C08BF4CEBF6
:10311000D17C04E04FF0080C01E04FEAD17C0CEBCD
:103120004C0324FA03F404F00704B4F1040C06D2AF
:103130000EEB840CBDE810404CF0010C6047DFE85A
:103140000CF0070802024FF00040A0F5800010BD0F
:103150000846420018BFD2F1807288BF00F00040DC
:1031600010BDFF2141EAD050C0057047FDF78EBA6F
:10317000010202030405060708090A0B0C0D0E0FD5
:103180001010010202030405060708090A0B0C0DC2
:103190000E0F1010000000000000000001020304E8
:1031A00006070809000000000102030402400000B5
:1031B000000000A00000000005400000000000C862
:1031C000000000000C4000000000409C00000000D7
:1031D000194000000020BCBE000000003440000088
:1031E000BFC91B8E00000004B5400000504BCFD07B
:1031F0006607E2CF010000006C4100003E8251AA48
:10320000DFEEA73401000000D9420000DCB5A0E2E7
:103210003A301F97FFFFFFFFB4450000FD25A0C80F
:10322000E9A3C14FFFFFFFFFFF3F00000000008048
:1032300000000000FF3F00000000008000000000D0
:103240007C32000800000020100000002801000867
:103250008C32000810000020200700004401000804
:103260001C00000043000000F8FFFFFF0C000000FE
:103270000E0000000F0000002E0000000100000002
:0C328000100000000000000000127A00A6
:04000005080000ED02
:00000001FF
