:020000040800F2
:10000000E00700209D010008452100089B1F000813
:1000100041210008CD020008652A00080000000008
:10002000000000000000000000000000D1240008D3
:100030005B0400080000000099230008D324000896
:10004000B7010008B7010008B7010008B7010008B0
:10005000B7010008B7010008B7010008B7010008A0
:10006000B7010008B7010008B7010008B701000890
:1000700041030008B7010008B7010008B7010008F4
:10008000B7010008B7010008B7010008B701000870
:10009000D1020008B7010008B7010008B701000845
:1000A000B7010008B7010008B7010008B701000850
:1000B000B7010008B7010008B7010008B701000840
:1000C000B7010008B7010008B7010008B701000830
:1000D000B7010008B7010008B7010008B701000820
:1000E000B7010008B7010008B7010008B701000810
:1000F000B7010008B7010008B7010008B701000800
:10010000B7010008B7010008B7010008B7010008EF
:10011000B7010008B7010008B7010008B7010008DF
:10012000B7010008B7010008B7010008B7010008CF
:10013000B7010008B7010008B7010008B7010008BF
:10014000E1020008B7010008B7010008B701000884
:10015000B7010008B7010008B7010008B70100089F
:10016000B7010008B7010008B7010008B70100088F
:10017000B7010008B7010008B7010008000000003F
:10018000B7010008B7010008DFF80CD000F08CF8C8
:1001900000480047352B0008E0070020064880474C
:1001A00006480047FEE7FEE7FEE7FEE7FEE7FEE75C
:1001B000FEE7FEE7FEE7FEE791250008890100085B
:1001C0002DE9F05F0546002092469B46884606468C
:1001D000814640241BE0284641464746224600F01F
:1001E00053F853465A46C01A914110D31146184647
:1001F000224600F03AF82D1A67EB01084F462246D6
:100200000120002100F031F817EB00094E41201EBB
:10021000A4F10104DFDC484631462A464346BDE8E6
:10022000F09F40EA01039B0703D009E008C9121FB1
:1002300008C0042AFAD203E011F8013B00F8013BA0
:10024000521EF9D27047D2B201E000F8012B491ECC
:10025000FBD270470022F6E710B513460A46044663
:100260001946FFF7F0FF204610BD202A04DB203A94
:1002700000FA02F1002070479140C2F1200320FAF9
:1002800003F3194390407047202A04DB203A21FAF7
:1002900002F00021704721FA02F3D040C2F120029F
:1002A0009140084319467047064C074D06E0E06848
:1002B00040F0010394E8070098471034AC42F6D3AD
:1002C000FFF766FF642D0008842D000800BFFEE7DD
:1002D00010B5024800F0DBFA10BD000090020020CB
:1002E00010B5024800F0D3FA10BD0000B80200209B
:1002F000F8B507460C4615461E464FF400700D49EA
:10030000086000208860C86008200861380A0A492F
:1003100008704F70200A8870CC70280A08714D71DF
:10032000300A8871CE716B460A460249034800F0D4
:10033000ADF8F8BD980000200800002090020020D1
:1003400010B5024800F0D8FD10BD000028030020C1
:100350000146087810381823B0FBF3F20848805C97
:10036000C865032A05D908686FF30900001D886570
:1003700003E008686FF309008865886D7047000026
:10038000442D0008014600208A6A8B69CBB932B13E
:10039000012A0DD0022A03D0032A10D10EE000BF9B
:1003A000CB6A03F08073B3F1807F00D1012007E0B6
:1003B000CB6AB3F1C07F00D1012001E000E000BFB3
:1003C00034E08B69B3F5005F1AD132B1012A07D04E
:1003D000022A03D0032A11D10AE000BF01200EE057
:1003E000CB6A03F08073B3F1807F00D1012006E077
:1003F000CB6AB3F1C07F00D1012000E000BF15E05F
:1004000032B1012A05D0022A04D0032A0CD103E01C
:1004100000BF00BF012008E0CB6A03F08073B3F196
:10042000807F00D1012000E000BF00BF704730B5E1
:100430000468246824F4802405682C6004686360E0
:100440008468402C04D10468A2600468E16003E081
:100450000468A1600468E26030BD704772B600BFF6
:10046000FEE710B5024692F82030012B01D0022B96
:1004700006D110684069084314686061002010BD0F
:10048000506A40F4802050620120F8E7F0B504463D
:100490000D461E4694F8207020688368A86800B94D
:1004A00000E000BF012F01D0022F7DD103F080605A
:1004B00030B903F0006018B903F0805000287ED0F6
:1004C000C3F30161012088403060A86860B9B5F8C5
:1004D00000C0E86840EA4C5C206800F5C07000EBA2
:1004E0000110C0F800C00FE0D5E901C040EACC001F
:1004F000D5F80CC040EA0C00D4F800C00CF5C07C64
:100500000CEB011CCCF80000D5F810C0206800F5F9
:10051000C07000EB0110C0F804C0287D01280ED186
:10052000206800F5C07000EB0110406840F4807C4A
:10053000206800F5C07000EB0110C0F804C0D0794D
:10054000000692F806C040EA0C4092F805C040EA66
:100550000C2092F804C040EA0C00D4F800C00CF55E
:10056000C07C0CEB011CCCF80C00D078000692F893
:1005700002C040EA0C4092F801C040EA0C2092F818
:1005800000C040EA0C00D4F800C00CF5C07C0CEBB5
:10059000011CCCF80800206800F5C07000EB0110C9
:1005A000006840F0010C01E00FE008E0206800F571
:1005B000C07000EB0110C0F800C00020F0BD606A00
:1005C00040F4001060620120F8E7606A40F4802087
:1005D00060620120F2E70000F0B504460A4694F894
:1005E0002050012D01D0022D7ED1424901F500712C
:1005F000086840F001000860086820F47C5008603A
:100600000868566A40EA06200860107D00F01F0660
:10061000012000FA06F3C8699843C861A1F500718A
:10062000D069C8B9D1F80C029843C1F80C0290887F
:1006300080B2968940EA064601F51070576940F885
:100640003760108880B2168940EA064601F51070BE
:10065000576900EBC7004660D069012819D1D1F86D
:100660000C021843C1F80C02908880B2168840EA48
:10067000064601F51070576940F83760908980B2DE
:10068000168940EA064601F51070576900EBC7006D
:100690004660906928B9D1F804029843C1F8040271
:1006A00004E0D1F804021843C1F80402106928B923
:1006B000D1F814029843C1F8140204E0D1F81402EE
:1006C0001843C1F81402106A012804D1D1F81C02A1
:1006D0001843C1F81C02D1F8000220F00100C1F853
:1006E00000020020F0BDFFE7606A40F480206062F5
:1006F0000120F7E700640040704770B5044694F8A5
:100700002050012D01D0022D7DD151B92068C06843
:1007100000F0030080B9606A40F4001060620120BC
:1007200070BD2068006900F0030028B9606A40F4D9
:10073000001060620120F3E7206800F5D87000EB3C
:100740000110006800F004009060906840B92068D3
:1007500000F5D87000EB01100068400D106007E054
:10076000206800F5D87000EB01100068C0085060E8
:10077000206800F5D87000EB0110006800F002005E
:10078000D060206800F5D87000EB0110406800F0E0
:100790000F00082802D30820106108E0206800F547
:1007A000D87000EB0110406800F00F001061206865
:1007B00000F5D87000EB0110406800F47F40000A9B
:1007C0009061206800F5D87000EB01104068000CC3
:1007D0005061206800F5D87000EB01108068187037
:1007E000206800F5D87000EB0110806800F47F40AD
:1007F000000A5870206800F5D87000EB011080687E
:1008000000F47F0000E03CE0000C9870206800F5E8
:10081000D87000EB01108068000ED870206800F5D9
:10082000D87000EB0110C0681871206800F5D8700E
:1008300000EB0110C06800F47F40000A5871206886
:1008400000F5D87000EB0110C06800F47F00000CC8
:100850009871206800F5D87000EB0110C068000E98
:10086000D87131B92068C06840F020002668F06077
:1008700005E02068006940F0200026683061002013
:100880004EE7606A40F480206062012048E72DE96D
:10089000F05F04460025206846692068D0F804907F
:1008A000206887682068D0F80CA02068D0F810B0C5
:1008B0002068D0F8188006F00100002855D007F015
:1008C0000100C0B101202168886007F0020018B162
:1008D000204600F00AFB0EE007F0040010B145F4DA
:1008E000006508E007F0080010B145F4805502E00B
:1008F000204600F0F9FA07F48070C8B14FF4807018
:100900002168886007F4007018B1204600F0EFFA03
:100910000EE007F4806010B145F4005508E007F4DC
:10092000006010B145F4804502E0204600F0DEFA98
:1009300007F48030C8B14FF480302168886007F434
:10094000003018B1204600F0D4FA0EE007F4802001
:1009500010B145F4004508E007F4002010B145F45B
:10096000803502E0204600F0C3FA06F0080038B1F6
:100970000AF0100020B145F4007510202168C8600D
:1009800006F0040040B10AF0080028B108202168F0
:10099000C860204600F00CFA06F0020038B120686A
:1009A000C06800F0030010B1204600F003FA06F022
:1009B000400038B10BF0100020B145F480651020E4
:1009C0002168086106F0200040B10BF0080028B152
:1009D000082021680861204600F054FA06F0100053
:1009E00038B12068006900F0030010B1204600F023
:1009F0004AFA06F4003040B109F0100028B1102086
:100A000021684860204600F03FFA06F4803040B18B
:100A100009F0080028B1082021684860204600F04D
:100A200069FA06F4004088B309F0040078B306F4CC
:100A3000807020B108F0010008B145F0010506F40E
:100A4000007020B108F0020008B145F0020506F47C
:100A5000806020B108F0040008B145F0040506F4F8
:100A60000060A0B108F0700088B108F07000402864
:100A700017D006DC10280BD020280CD0302819D134
:100A80000CE0502810D0602814D110E01DE019E0CF
:100A900045F008050FE045F010050CE045F0200595
:100AA00009E045F0400506E045F0800503E045F427
:100AB000807500E000BF00BF2068806920F07000F2
:100AC000216888610420216848602DB1606A28434C
:100AD00060622046FFF710FEBDE8F09F70B5044647
:100AE0000CB9012070BD94F8200010B9204600F028
:100AF000AFF82068006840F001002168086000F04D
:100B0000E9FC05460DE000F0E5FC401B0A2808D989
:100B1000606A40F400306062052084F82000012003
:100B2000E0E72068406800F001000028EBD0206872
:100B3000006820F002002168086000F0CBFC054648
:100B40000DE000F0C7FC401B0A2808D9606A40F499
:100B500000306062052084F820000120C2E7206890
:100B6000406800F002000028EBD1207E012806D169
:100B70002068006840F080002168086005E0206877
:100B8000006820F0800021680860607E012806D19E
:100B90002068006840F040002168086005E0206897
:100BA000006820F0400021680860A07E012806D17E
:100BB0002068006840F020002168086005E0206897
:100BC000006820F0200021680860E07E012806D13E
:100BD0002068006820F010002168086005E02068A7
:100BE000006840F0100021680860207F012806D1CD
:100BF0002068006840F008002168086005E020686F
:100C0000006820F0080021680860607F012806D194
:100C10002068006840F004002168086005E0206852
:100C2000006820F0040021680860D4E9020108434C
:100C300021690843616908436168491E08432168C6
:100C4000C86100206062012084F82000002049E78C
:100C500010B586B00446142101A8FFF7FBFA4E49EF
:100C60002068884241D14D480068401C4B490860CB
:100C70000846006801280FD100BF002000904848B6
:100C8000006840F00070464908600846006800F0BF
:100C90000070009000BF00BF00BF002000904048DF
:100CA0001038006840F008003D49103908600846D7
:100CB000006800F00800009000BF00BF0320019012
:100CC0000220029000200390032004900920059048
:100CD00001A9344800F004FB00221146142000F062
:100CE00087FC142000F070FC54E02F4920688842F3
:100CF00050D100BF002000902948006840F080607B
:100D0000274908600846006800F08060009000BF36
:100D100000BF22480068401C20490860084600685F
:100D200001280FD100BF002000901D48006840F04E
:100D300000701B4908600846006800F000700090D1
:100D400000BF00BF00BF00200090154810380068A9
:100D500040F002001249103908600846006800F0AF
:100D60000200009000BF00BF6020019002200290AE
:100D700000200390032004900920059001A90B484E
:100D800000F0AEFA00221146402000F031FC402075
:100D900000F01AFC06B010BD0064004024000020E2
:100DA00040380240000C024000680040000402404D
:100DB0007047000010B58AB0044601AB03AA0021B9
:100DC0002046FFF79AFC0398A0F20120072851D291
:100DD000DFE800F00405060708090A0000BF00BFAD
:100DE00000BF00BF00BF00BF0398401E234908702A
:100DF0000846007800EB8000214931F8100000B26D
:100E00001E49097801EB81011D4A02EB410108816D
:100E10009DF805009DF8041040EA01201749097863
:100E200001EB810122F811009DF807009DF80610E2
:100E300040EA012000B21149097801EB810102EB7F
:100E4000410148809DF809009DF8081040EA012002
:100E500000B20A49097801EB810102EB4101888067
:100E60009DF80A000549097801EB810102EB410177
:100E7000887100E000BF00BF0AB010BD1000002064
:100E80003800002070477047704770B5044694F8EA
:100E90002000012822D1022084F820002068006868
:100EA00020F001002168086000F014FB05460DE009
:100EB00000F010FB401B0A2808D9606A40F400309B
:100EC0006062052084F82000012070BD2068406821
:100ED00000F001000028EBD16062F6E7606A40F4A0
:100EE000002060620120F0E770477047704770474C
:100EF0007047704770470000F8B504460020009026
:100F00008C4800684FF41651B0FBF1F7A56D2E68C0
:100F100094F85C1008208840304098B12068006840
:100F200000F0040070B12068006820F0040021681F
:100F3000086094F85C1008208840A860606D40F05C
:100F40000100606594F85C1001208840304068B171
:100F50002068406900F0800040B194F85C100120E6
:100F60008840A860606D40F00200606594F85C10F5
:100F700004208840304068B12068006800F002001A
:100F800040B194F85C1004208840A860606D40F087
:100F90000400606594F85C1010208840304078B3FD
:100FA0002068006800F0080050B394F85C1010202E
:100FB0008840A8602068006800F4802080B1206824
:100FC000006800F4002028B9206CC8B12046216CCC
:100FD000884715E0A06C98B12046A16C88470FE0C7
:100FE0002068006800F4807028B92068006820F04C
:100FF000080021680860206C10B12046216C8847E9
:1010000094F85C10202088403040002865D020688B
:10101000006800F0100000285FD094F85C102020D9
:101020008840A86094F83500052828D12068006819
:1010300020F01600216808602068406920F08000D8
:1010400021684861206C08B9A06C28B1206800684C
:1010500020F008002168086094F85C103F20884068
:10106000A860012084F8350000BF002084F8340017
:1010700000BF206D10B12046216D8847F8BD206863
:10108000006800F4802080B12068006800F400202F
:1010900028B9606C10B12046616C88471DE0E06B98
:1010A000D8B12046E16B884717E02068006800F45B
:1010B000807068B92068006820F01000216808601E
:1010C000012084F8350000BF002084F8340000BF00
:1010D000E06B10B12046E16B8847606D38B3606DFE
:1010E00000F00100F0B1052084F8350020680068A8
:1010F00020F001002168086000BF0098401C0090AB
:10110000B84200D905E02068006800F0010000281E
:10111000F3D100BF012084F8350000BF002084F81F
:10112000340000BFE06C10B12046E16C884700BF7E
:10113000A4E70000340000202DE9F041044600251A
:1011400000F0C8F9074614B90120BDE8F081606AD3
:1011500000B100BF022084F8350000BF002084F8F1
:10116000340000BF2068006820F00100216808609A
:101170000AE000F0AFF9C01B052805D92020606502
:10118000032084F83500E0E72068006800F00100E3
:101190000028EED12068056821480540D4E9010106
:1011A0000843E16808432169084361690843A1696C
:1011B0000843E1690843216A08430543606A04283B
:1011C00003D1D4E90B01084305432068056020687A
:1011D000456925F00705606A0543606A04280DD15A
:1011E000A06A0543E06A48B12046FFF7CBF828B172
:1011F00040206065012084F83500A6E7206845613D
:101200002046FFF7A5F8064694F85C103F2088407A
:10121000B06000206065012084F83500002094E76C
:101220003F8010F02DE9F04704460D4616461F4654
:101230004FF00008D4F8589000BF94F8340001280B
:1012400002D10220BDE8F087012084F8340000BFFD
:1012500094F83500012825D1022084F835000020BB
:1012600060653B46324629462046FFF7E0F894F891
:101270005C103F208840C9F808002068006840F0F2
:10128000160021680860206C28B12068006840F0D2
:101290000800216808602068006840F001002168AB
:1012A000086006E000BF002084F8340000BF4FF063
:1012B00002084046C6E7000070B5044600F00AF98F
:1012C00006462546681C10B104480078054400BF56
:1012D00000F000F9801BA842FAD370BD3000002056
:1012E000F8B502460B460025002400200021D6E078
:1012F000012606FA01F51E6806EA0504AC4274D11F
:101300001E7906F00306012E04D01E7906F00306AE
:10131000022E13D190684F000326BE40B0434F0009
:10132000DE68BE4030439060506801268E40B04376
:101330001E79C6F300168E40304350601E7906F0C9
:101340000306032E09D0D0684F000326BE40B043E9
:101350004F009E68BE403043D0601E7906F0030601
:10136000022E13D1CF0802F1200656F827004E07AF
:10137000F70E0F26BE40B0434F07FF0E1E69BE405A
:101380003043CF0802F1200646F8270010684F00CE
:101390000326BE40B0431E7906F003064F00BE4050
:1013A000304310605E6806F44036002E76D000BFF1
:1013B000002600963C4E366846F480463A4F3E6022
:1013C0003E46366806F48046009600BF00BF374EA2
:1013D0008F0856F827008E07370F0F26BE40B04300
:1013E000334EB24202D1002624E057E0314EB242E1
:1013F00001D101261EE0304EB24201D1022619E091
:101400002E4EB24201D1032614E02D4EB24201D13C
:1014100004260FE02B4EB24201D105260AE02A4EE7
:10142000B24201D1062605E0284EB24201D107267C
:1014300000E008268F073F0FBE4030431B4E8F0849
:1014400046F82700224E3068A0435E6806F48016F6
:1014500006B120431E4E3060361D3068A0435E68E2
:1014600006F4001606B12043194E361D3060184EA2
:10147000361F3068A0435E6806F4003606B120438C
:10148000134E361F3060361F3068A0435E6806F486
:10149000803606B120430E4E083E3060491C1029AC
:1014A000FFF426AFF8BD0000443802400838014080
:1014B000000002400004024000080240000C02400C
:1014C000001002400014024000180240001C0240BC
:1014D000083C0140014800687047000028000020D7
:1014E00003480068034909780844014908607047C7
:1014F000280000203000002010B50D48006840F49E
:1015000000700B4908600846006840F4806008607D
:101510000846006840F480700860032000F0A6F8D8
:101520000F2000F007F800F02BF8002010BD00009D
:10153000003C024070B504460E4800784FF47A71C2
:10154000B1FBF0F00C490968B1FBF0F5284600F05A
:101550002FFC08B1012070BD102C07D200222146BB
:10156000501E00F045F80548046001E00120F2E754
:101570000020F0E730000020340000202C00002084
:1015800008B500BF002000900E48006840F480407D
:101590000C4908600846006800F48040009000BFD5
:1015A00000BF00BF00200090081F006840F080507E
:1015B000091F08600846006800F08050009000BFD6
:1015C00000BF08BD443802400146084600280DDB34
:1015D00000BF00BF00F01F0301229A4043099B0097
:1015E00003F1E023C3F8002100BF00BF00BF704734
:1015F0002DE9F05F80460D461646002701F034FACB
:10160000074639462A46334601F00700C0F1070A6B
:10161000BAF1040F02D94FF0040A01E0C0F1070A41
:10162000D14600F1040ABAF1070F02D24FF0000AC6
:1016300001E0A0F1030AD4464FF0010A0AFA09FAC0
:10164000AAF1010A0AEA020A0AFA0CFA4FF0010B9F
:101650000BFA0CFBABF1010B0BEA030B4AEA0B0490
:101660002146404601F008FABDE8F09F00BF00F0B7
:101670000702064B19684FF6FF031940044B0B4352
:1016800043EA0221014B196000BF70470CED00E0F6
:101690000000FA0570B504460D460CB9012070BD76
:1016A0005848006800F00700A84209D255490D705B
:1016B0000846006800F00700A84201D00120EEE7CC
:1016C000207800F0020002281DD1207800F00400EC
:1016D000042805D14C48006840F4E0504A490860AD
:1016E000207800F00800082805D14748006840F439
:1016F0006040454908604448006820F0F000A16857
:10170000084341490860207800F00100A8B36068F0
:10171000012807D13C4808380068C0F34040B8B9F8
:101720000120BCE76068022802D06068032807D166
:10173000354808380068C0F3406048B90120AEE77A
:10174000314808380068C0F3400008B90120A6E716
:101750002D48006820F00300616808432A490860AA
:10176000FFF7B8FE064609E0FFF7B4FE801B41F222
:101770008831884202D9032091E707E022480068B7
:1017800000F00C006168B0EB810FEDD11D480068DE
:1017900000F00700A84209D91A490D7008460068F0
:1017A00000F00700A84201D0012078E7207800F07F
:1017B0000400042807D11448006820F4E050E168D0
:1017C000084311490860207800F00800082808D173
:1017D0000D48006820F46040216940EAC1000A49D0
:1017E000086000F03FF808490968C1F30311074A8F
:1017F000515CC8400649086006480068FFF79AFE39
:1018000000204CE7003C0240083802404C2D000804
:10181000340000202C0000200148006870470000C0
:101820003400002000B5FFF7F7FF04490968C1F351
:101830008221034A515CC84000BD000008380240C4
:101840005C2D000800B5FFF7E7FF04490968C1F304
:101850004231034A515CC84000BD000008380240D4
:101860005C2D00082DE9F047002400250026A14644
:101870002548006800F00C0020B1042805D0082895
:101880003AD105E0DFF8849039E0DFF8849036E063
:101890001D48001F006800F03F041B48001F00683F
:1018A00000F4800078B11A481749091F0968C1F38C
:1018B0008811A0FB01700146224600233846FEF73E
:1018C0007FFC05460EE011480F49091F0968C1F366
:1018D0008811A0FB01700146224600233846FEF71E
:1018E0006FFC05460848001F0068C0F30140401C1B
:1018F0004600B5FBF6F902E0DFF8109000BF00BF2C
:101900004846BDE8F0870000083802400024F40093
:10191000001BB700F8B504460CB90120F8BD2078CB
:1019200000F00100002874D0F948006800F00C00B5
:1019300004280DD0F648006800F00C00082813D1E8
:10194000F348001F006800F48000B0F5800F0BD151
:10195000EF4808380068C0F34040002859D060685C
:10196000002856D10120D9E700BF6068B0F5803F5C
:1019700008D1E7480838006840F48030E449083965
:1019800008601EE06068B0F5A02F0DD1E04808386F
:10199000006840F48020DE49083908600846006885
:1019A00040F4803008600CE0D9480838006820F422
:1019B0008030D749083908600846006820F4802044
:1019C000086000BF606890B1FFF784FD054606E03F
:1019D000FFF780FD401B642801D903209EE7CC4817
:1019E00008380068C0F340400028F1D011E0FFF74C
:1019F00071FD054606E0FFF76DFD401B642801D927
:101A000003208BE7C24808380068C0F34040002834
:101A1000F1D1207800F0020002285FD1BC480068B4
:101A200000F00C0058B1BA48006800F00C0008281B
:101A30001CD1B748001F006800F48000B0B9B4485A
:101A400008380068C0F3400020B1E068012801D0E8
:101A5000012063E7AE480838006820F0F8002169EB
:101A600040EAC100AA490839086037E0E06800B3DD
:101A70000120A8490860FFF72DFD054606E0FFF7A5
:101A800029FD401B022801D9032047E7A048083858
:101A90000068C0F340000028F1D09D480838006875
:101AA00020F0F800216940EAC1009949083908602E
:101AB00014E0002097490860FFF70CFD054606E09A
:101AC000FFF708FD401B022801D9032026E79048B4
:101AD00008380068C0F340000028F1D1207800F0F9
:101AE000080008282CD16069A8B101208A49086043
:101AF000FFF7F0FC054606E0FFF7ECFC401B022870
:101B000001D903200AE782486C300068C0F3400026
:101B10000028F1D014E000207F490860FFF7DAFCCC
:101B2000054606E0FFF7D6FC401B022801D903203A
:101B3000F4E677486C300068C0F340000028F1D12B
:101B4000207800F00400042870D100277048383055
:101B5000006800F0805090B900BF002000906C48F1
:101B60003830006840F080506949383108600846D4
:101B7000006800F08050009000BF00BF0127674858
:101B8000006800F48070B0B96448006840F4807068
:101B900062490860FFF79EFC054606E0FFF79AFCE5
:101BA000401B022801D90320B8E65C48006800F415
:101BB00080700028F2D000BFA068012808D15448E6
:101BC0006830006840F001005149683108601DE04C
:101BD000A06805280DD14E486830006840F0040028
:101BE0004B49683108600846006840F00100086011
:101BF0000CE047486830006820F001004449683133
:101C000008600846006820F00400086000BFA06873
:101C1000A8B1FFF75FFC054609E0FFF75BFC401B3E
:101C200041F28831884202D9032077E626E038481D
:101C300068300068C0F340000028EED013E0FFF7E2
:101C400049FC054608E0FFF745FC401B41F288319E
:101C5000884201D9032061E62D4868300068C0F34E
:101C600040000028EFD1012F07D129483830006803
:101C700020F0805026493831086000BFA069002854
:101C800045D02348006800F00C0008285DD0A0690A
:101C9000022845D100201F490866FFF71BFC0546B6
:101CA00006E0FFF717FC401B022801D9032035E6A8
:101CB000174808380068C0F340600028F1D1D4E923
:101CC00007010843616A40EA81110122A06AC2EB60
:101CD000500041EA00412C20005D41EA00600C49BF
:101CE000091F086001200B490866FFF7F3FB054652
:101CF00006E0FFF7EFFB401B022801D903200DE6A9
:101D0000034808380068C0F340600028F1D049E07B
:101D10000838024000004742800E474200700040F1
:101D2000002021490866FFF7D5FB054606E0FFF7CE
:101D3000D1FB401B022801D90320EFE51B480068B6
:101D4000C0F340600028F2D12CE0A069012800D146
:101D5000E4E51648001D0668A069012820D006F4B5
:101D60008001E06981421BD106F03F01206A814277
:101D700016D147F6C0703040616AB0EB811F0FD1B9
:101D800006F440310122A06AC2EB5000B1EB004FD3
:101D900006D106F070612C20005DB1EB006F01D020
:101DA0000120BBE50020B9E50000474200380240B1
:101DB00070B504462546681EB0F1807F01D301202E
:101DC0000FE0681E4FF0E02148610F214FF0FF3017
:101DD00000F052FE00204FF0E021886107200861EA
:101DE000002070BD7047704710B504460CB9012043
:101DF00010BDA06900B100E000BF94F8410028B90F
:101E0000002084F84000204600F02AF8242084F8BE
:101E100041002068C06820F400502168C860204656
:101E200000F09EFC2068006920F490402168086161
:101E30002068406920F02A00216848612068C06855
:101E400040F400502168C86000206064202084F8BD
:101E5000410084F842000020606300BFC8E7000032
:101E600010B586B00446142101A8FEF7F3F92C49F9
:101E70002068884252D100BF0020009029480068A5
:101E800040F48020274908600846006800F480205C
:101E9000009000BF00BF00BF002000902148103814
:101EA000006840F004001F491039086008460068C7
:101EB00000F00400009000BF00BF4FF440600190AC
:101EC0000220029000200390032004900720059038
:101ED00001A91548FFF704FA1448154908604FF0A6
:101EE00000604860002112488160C1604FF4806149
:101EF00001610021416181614FF48071C1614FF442
:101F00004031016200214162FFF716F908B1FEF786
:101F1000A5FA00BF0648E063846300BF06B010BDA9
:101F2000004800404038024000080240286002405B
:101F30002803002070B504460D46164694F842006A
:101F400020280BD105B10EB9012070BD00202063FF
:101F500032462946204600F019FDF6E70220F4E754
:101F600010B504460849206888420CD11922074957
:101F70000748FEF756F9064800F010FA19220449FE
:101F80000448FFF7D7FF10BD004800408803002039
:101F9000A1030020E0020020704700BFFEE7000020
:101FA00010B50E480E4908600320486000210C4817
:101FB0008160C1604FF4102101614FF40011416153
:101FC0000021017641768176C17601774177FEF76F
:101FD00085FD08B1FEF742FA10BD00000064004024
:101FE0009002002010B50E480E490860032048609A
:101FF00000210C488160C1604FF4102101614FF451
:10200000001141610021017641768176C176017728
:102010004177FEF763FD08B1FEF720FA10BD00001E
:1020200000680040B802002008B500BF0020009002
:102030000A48006840F40010084908600846006833
:1020400000F40010009000BF00BF002211460C20D9
:10205000FFF7CEFA0C20FFF7B7FA08BD3038024080
:1020600008B500BF002000902448006840F002003E
:10207000224908600846006800F00200009000BF96
:1020800000BF00BF002000900846006840F001003B
:1020900008600846006800F00100009000BF00BF23
:1020A00000BF002000900846006840F0080008606B
:1020B0000846006800F00800009000BF00BF00BFA5
:1020C000002000900846006840F0040008600846C0
:1020D000006800F00400009000BF00BF00BF0020B7
:1020E00000900846006840F08000086008460068DC
:1020F00000F08000009000BF00BF08BD30380240F3
:1021000010B50C480C4908600C4848604FF48051E9
:10211000094881600021C1604FF4806101610C2198
:10212000416100218161C161FFF75EFE08B1FEF7E8
:1021300095F910BD00480040E0020020A086010093
:1021400000BFFEE700BFFEE7B0EE401A10B99FEDFA
:10215000790A704790ED100A80ED110A90ED0F0A90
:1021600080ED100AC0ED060A80ED071A30EEC10AB4
:1021700080ED0F0A0178002975D190ED010AD0EDAC
:102180000F1A20EE210A80ED090A90ED0A0AD0ED1F
:10219000021A90ED0F2A01EE820A80ED0A0A90EDF4
:1021A0000D0A80ED0E0A90ED0C0A80ED0D0A90EDFF
:1021B0000F0AD0ED101A30EE610A80ED0C0A90ED96
:1021C000030AD0ED0C1A20EE210A80ED0B0A90EDE7
:1021D0000A0AD0ED051AB4EEE10AF1EE10FA04DDB8
:1021E00090ED050A80ED0A0A10E090ED0A0AD0EDA4
:1021F000051AF1EE611AB4EEE10AF1EE10FA05D219
:1022000090ED050AB1EE400A80ED0A0A90ED090A48
:10221000D0ED0A1A30EE210AD0ED0B1A30EE210A69
:1022200080ED080A90ED080AD0ED041AB4EEE10A38
:10223000F1EE10FA04DD90ED040A80ED080A76E074
:1022400090ED080AD0ED041AF1EE611AB4EEE10A3D
:10225000F1EE10FA6BD290ED040AB1EE400A80ED77
:10226000080A64E0FFE70178012960D190ED0F0AC8
:10227000D0ED101A30EE610AD0ED011A20EE210ADD
:1022800080ED090A90ED020AD0ED0F1A20EE210A26
:1022900080ED0A0A90ED0D0A80ED0E0A90ED0C0A11
:1022A00080ED0D0A90ED0F0AD0ED101AB0EE002A65
:1022B00002EE610AD0ED111A30EE210A80ED0C0A0F
:1022C00090ED030AD0ED0C1A20EE210A80ED0B0AE6
:1022D00090ED090AD0ED0A1A30EE210AD0ED0B1A62
:1022E00030EE210AD0ED081A30EE210A80ED080AFE
:1022F00090ED080AD0ED041AB4EEE10AF1EE10FAFE
:1023000004DD90ED040A80ED080A10E090ED080A63
:10231000D0ED041AF1EE611AB4EEE10AF1EE10FA12
:1023200005D290ED040AB1EE400A80ED080A90ED66
:10233000080A0EE70000000000B102B97047017002
:1023400092ED001A80ED011A92ED011A80ED021A49
:1023500092ED021A80ED031A80ED040AC0ED050A21
:102360009FED0C1A80ED0E1A80ED0D1A80ED0C1AFF
:102370009FED081A80ED081A80ED0B1A80ED0A1AFD
:1023800080ED091A80ED111A80ED101A80ED0F1AF8
:1023900000BFD3E70000000070470000417882785A
:1023A00041EA0221C1F30A01484A11808178C9102B
:1023B000C27841EA4211C1F30A01444A5180C1780E
:1023C0008911027941EA8201427941EA8221C1F30D
:1023D0000A013E4A918041794910827941EAC2114D
:1023E000C1F30A01394AD18081790911C27941EAE0
:1023F0000211C1F30A01354A1181C179C911027A6A
:1024000041EA4201427A41EA4221C1F30A012F4ADC
:102410005181417A8910827A41EA8211C1F30A011D
:102420002A4A9181817A4911C27A41EAC201274A36
:10243000D181017B427B41EA0221C1F30A01234A97
:102440001182417BC910827B41EA4211C1F30A012A
:102450001E4A5182817B8911C27B41EA8201027C42
:1024600041EA8221C1F30A01184A9182017C491094
:10247000427C41EAC211C1F30A01144AD182417C73
:102480000911827C41EA0211C1F30A010F4A11834A
:10249000817CC911C27C41EA4201027D41EA4221AC
:1024A000C1F30A01094A5183017D8910427D41EA45
:1024B0008211C1F30A01054A9183417D4911827D50
:1024C00041EAC201014AD18370470000BA030020EB
:1024D000704710B5FFF704F810BD000000B593B0C9
:1024E000302107A8FDF7B6FE142102A8FDF7B2FEC1
:1024F00000BF002001902448006840F0805022492D
:1025000008600846006800F08050019000BF00BFDE
:1025100000BF002001901D48006840F480401B4926
:1025200008600846006800F48040019000BF00BFCA
:10253000012007900004089002200D9041050E91A3
:1025400006210F91A82110910221119104211291CD
:1025500007A8FFF7DFF908B1FDF780FF0F20029011
:1025600002200390002004904FF4A05005904FF4F7
:1025700080500690052102A8FFF78CF808B1FDF7FE
:102580006DFF13B000BD00004038024000700040F5
:102590000348006840F4700001490860704700007B
:1025A00088ED00E070B506460025B46B20684069F0
:1025B000C0F3C01594F84100212805D125B10020B1
:1025C000E084204600F0B8F820684069C0F3801528
:1025D00094F84200222805D125B10020E08520464C
:1025E00000F074F8606C40F0100060642046FFF763
:1025F000FAFB70BD70B50546AC6B2868006800F446
:102600008070002842D1E08500BF00BF21680C31F6
:1026100051E8001F21F4807021680C3141E800026C
:10262000002AF3D100BF00BF00BF2168143151E878
:10263000001F21F001002168143141E80002002A46
:10264000F3D100BF00BF00BF2168143151E8001F63
:1026500021F040002168143141E80002002AF3D142
:1026600000BF202084F84200206B01280ED100BF5B
:1026700000BF21680C3151E8001F21F010002168D3
:102680000C3141E80002002AF3D100BF0020606352
:10269000206B012804D1A18D2046FFF7A3FB02E0A7
:1026A0002046FFF75DFC70BD70B50546AC6B0120A0
:1026B0006063206B012805D1A08D41082046FFF7FB
:1026C00091FB02E02046FFF767FC70BD00BF00BF32
:1026D00002680C3252E8002F22F4907102680C322A
:1026E00042E80013002BF3D100BF00BF00BF026817
:1026F000143252E8002F22F001010268143242E83D
:102700000013002BF3D100BF016B01290ED100BFD4
:1027100000BF02680C3252E8002F22F0100102685C
:102720000C3242E80013002BF3D100BF202180F8C7
:10273000421000210163704700BF00BF02680C32E5
:1027400052E8002F22F0C00102680C3242E8001368
:10275000002BF3D100BF202180F84110704700000A
:102760002DE9F84F04462068006920F44050E168E4
:102770000843216808612169A0680843616908432A
:10278000E169084300902068C06849F20C61884301
:10279000009908432168C8602068406920F44070AF
:1027A000A16908432168486176492068884203D0BE
:1027B00075492068884203D1FFF744F8814602E05A
:1027C000FFF730F88146E069B0F5004F6CD1022088
:1027D0006168A0FB015003461920A9FB0070014667
:1027E0002A463846FDF7ECFC6421B0FBF1F04FEAD5
:1027F000001A02206168A0FB01510B461920A9FBB9
:1028000000712A463846FDF7DBFC834602206168EA
:10281000A0FB015003461920A9FB00712A46384647
:10282000FDF7CEFC6421B0FBF1F000EBC00101EB41
:102830000010ABEB8000322101EBC0006421B0FB43
:10284000F1F000F0F8000AEB400A02206168A0FBFA
:10285000015003461920A9FB007001462A4638465C
:10286000FDF7AEFC834602206168A0FB01500346E1
:102870001920A9FB00712A463846FDF7A1FC642106
:10288000B0FBF1F000EBC00101EB0010ABEB8000FE
:10289000322101EBC0006421B0FBF1F000F0070031
:1028A0005044216888606AE004206168A0FB015000
:1028B00003461920A9FB007001462A463846FDF759
:1028C0007FFC824604206168A0FB0150034619206A
:1028D000A9FB007001462A463846FDF771FC6421C9
:1028E000B0FBF1F000EBC00101EB0010AAEB80009F
:1028F000322101EB00106421B0FBF1F000F0F00A8E
:1029000004206168A0FB017003461920A9FB005157
:102910003A462846FDF754FC6421B0FBF1F00AEB7F
:10292000001A04206168A0FB01510B461920A9FB85
:1029300000712A463846FDF743FC8346042061684F
:10294000A0FB015003461920A9FB007001462A464E
:102950003846FDF735FC6421B0FBF1F000EBC00117
:1029600001EB0010ABEB8000322101EB0010642181
:10297000B0FBF1F000F00F00504421688860BDE822
:10298000F88F0000001001400014014077B581B0BD
:10299000044615460298A062A585002060642220A6
:1029A00084F842002C48E16BC8632C48E16B086452
:1029B0002B48E16BC8640020E16B086502AE326809
:1029C0002368191D2B46E06BFEF72CFC38B1102054
:1029D0006064202084F84200012004B070BD00BF74
:1029E00000200090206800680090206840680090F7
:1029F00000BF00BF206970B100BF00BF21680C316B
:102A000051E8001F41F4807021680C3141E8000258
:102A1000002AF3D100BF00BF00BF2168143151E884
:102A2000001F41F001002168143141E80002002A32
:102A3000F3D100BF00BF00BF2168143151E8001F6F
:102A400041F040002168143141E80002002AF3D12E
:102A500000BF0020C1E70000F5250008A9260008F6
:102A6000A525000800BFFEE702480068C0F3022069
:102A7000704700000CED00E010B5002804DB0A07E9
:102A8000130E054A135406E00A07140E034A00F019
:102A90000F031B1FD45410BD00E400E018ED00E04C
:102AA00002E008C8121F08C1002AFAD17047704717
:102AB000002001E001C1121F002AFBD17047000075
:102AC00000B58BB0012009900020079001200890EC
:102AD000002001900290039004900690059001A9B7
:102AE0000C48FDF779FD0B48FEF7CFF902210948A4
:102AF000FDF7B7FC0E200A90069001A90648FDF7E5
:102B00006BFD0548FEF7C1F902210348FDF7A9FC5A
:102B10000BB000BD90020020B8020020014601F079
:102B2000030000EB8000024A02EB40007047000007
:102B300038000020FEF7E0FCFFF7D0FCFFF790FA2A
:102B4000FFF772FAFFF72CFAFFF74CFAFFF7D8FA03
:102B5000FFF7B6FF002413E0E0B2FFF7DFFF66499E
:102B600041F8240004EBC401644A02EBC100DFED2C
:102B7000640A9FED640A644A0021FFF7DDFB641CD0
:102B8000042CE9DB192261496148FFF7D3F9B1E070
:102B90006048B0F90400B0F5787F30DD5D48B0F9E9
:102BA0000400B0F5E16F2ADA5A49B1F904005A4934
:102BB00091ED000A00F0B8F8584908605549B1F99C
:102BC0000400554991ED000A00F0AEF85349486001
:102BD0005049B1F90400504991ED000A00F0A4F801
:102BE00040424E4988604B49B1F904004A4991ED91
:102BF000000A00F099F840424849C86034E045486E
:102C0000B0F90400B0F5787F2EDA4248B0F904003C
:102C1000642829DD3F49B1F904003F4991ED000ADC
:102C200000F082F83D4908603A49B1F904003A4998
:102C300091ED000A00F078F8384948603549B1F95B
:102C40000400354991ED000A00F06EF84042334926
:102C500088603049B1F904002F4991ED000A00F075
:102C600063F840422D49C860002430E0224850F803
:102C70002400B0F9020000EE100AB8EEC00ABDEE62
:102C8000C00A10EE100A264941F82400234951F8E1
:102C9000241001EE101AB8EEC11AF0EE410A2049D4
:102CA00051F8241001EE101AB8EEC11AB0EE410A24
:102CB00004EBC401114A02EBC100FFF745FABDEE77
:102CC000C00A10EE100A174941F82400641C042CB5
:102CD000CCDB144CA48923B2124C248922B2114CAF
:102CE000A48821B20F4C248820B2FDF701FB0A20F2
:102CF000FEF7E2FA4CE700006001002070010020BE
:102D000000007A4400803B45180000208803002022
:102D1000E0020020BA03002014000020240100205B
:102D200034010020140100200146A1F5787000EE66
:102D3000900AF8EEE00A60EE800AFDEEE00A10EE7E
:102D4000900A7047000610160006101600000000DA
:102D5000000000000102030406070809000000004B
:102D600001020304842D0008000000203800000048
:102D7000A02A0008BC2D000838000020A807000089
:102D8000B02A000800000000000000000000000061
:102D900000000000000000000000803F0000004133
:102DA0000000000000000000000000000000000023
:0C2DB00010000000010000000024F400EE
:040000050800018965
:00000001FF
